:020000040800F2
:1000000070080020710100081502000813020008A2
:1000100000000000000000000000000000000000E0
:1000200000000000000000000000000019020008AD
:100030000000000000000000170200081B0200087A
:100040008301000883010008830100088301000880
:100050008301000883010008830100088301000870
:1000600000000000830100088301000883010008EC
:1000700083010008830100088301000800000000DC
:100080000903000883010008000000008301000844
:100090008301000883010008830100088301000830
:1000A0008301000883010008830100088301000820
:1000B00083010008000000000000000000000000B4
:1000C00083010008000000008301000800F002F82E
:1000D00000F03EF80CA030C8083824182D18671E10
:1000E000A246AB4654465D46AC4201D100F030F822
:1000F0007E460F3EB6460FCC0126334200D0FB1A97
:100100003343A246AB461847B40B0000D40B0000A3
:10011000103A02D378C878C1FAD8520701D330C850
:1001200030C101D504680C60704700000023002432
:1001300000250026103A01D378C1FBD8520700D31E
:1001400030C100D50B6070471FB51FBD10B510BD85
:1001500000F02DF81146FFF7F7FF00F0BBF900F0B3
:1001600045F803B4FFF7F2FF03BC00F04BF80000C2
:100170000748804707480047FEE7FEE7FEE7FEE73F
:10018000FEE7FEE704480549054A064B70470000B4
:1001900021020008CD000008700000207008002037
:1001A0007004002070040020704770477047754647
:1001B00000F024F8AE46050069465346C008C0006A
:1001C000854618B020B5FFF7DDFF60BCB6460026B7
:1001D0000027C0C5C0C5C0C5C0C5C0C5C0C5C0C555
:1001E000C0C5403D490849008D46704710B50446DA
:1001F000C046C0462046FFF7B4FF10BD0048704718
:100200000800002001491820ABBEFEE726000200CE
:100210007047FEE770477047704700F08FB80000E6
:10022000F0B43348026801210A4302600268920771
:10023000FCD542682F4B1340436043682E4A13405D
:10024000436003682D4C1C400460C36A0F24A34321
:10025000C362036B40F20314A34303630B04046BF8
:100260009C430463CB07046B9C430463436B8B4345
:10027000436300238360224CA31C05681D43056073
:100280004B040568661EA64202D21D403446F8D0D3
:1002900004681C422AD01B4C256802231D430526F6
:1002A000B5432560446844604468446044684460E1
:1002B0004468144044601D2212044468144344609E
:1002C0000A0604681443046002689201FCD542687F
:1002D0000324A243426042681A4342604268120704
:1002E000FCD5C8060021F0BC00F0CAB9FEE7C04644
:1002F000001002400C00FF08FFFFC277FFFFF2FE74
:10030000FEFF00000020024010B5D94C012120461C
:1003100000F0B7FC20B10920C006022100F063F80C
:100320000121204610BC04BC964600F0A7BCC04684
:100330000649086008680028FCD170470348016836
:1003400011B10168491E01607047C0466800002075
:1003500010B5514800F0F2F90920C406012102222B
:10036000204640F2006300F048F8002103222046B6
:1003700040F2006300F060F8204640F2006110BCDB
:1003800004BC964600F02BB8FCB50191016A0090C0
:10039000446A00252E46202D0CD01746F740FF0753
:1003A00005D0019FAF400F23AB40994339432D1D2A
:1003B000761CF0E708250026202E0CD01346EB40D3
:1003C000DB0705D0019BB3400F27B740BC431C435C
:1003D000361D6D1CF0E7009801624462FCBD81622D
:1003E000704781617047C162704700690840411ED3
:1003F00088417047006980B27047FEB50293019250
:1004000002680090C56800263746202E10D0029B57
:10041000FB40DB0709D0019BB3400324B440A54354
:100420001D430B46B340A2431A43B61C7F1CECE7A6
:1004300000980260C560FEBDF8B5012902D141688F
:10044000194301E0416899434160009081680024AC
:1004500003202646202C0CD01F46F740FF0705D06E
:100460001746A7400546A540A9433943A41C761C5E
:10047000F0E700988160F8BD80B5074800F05EF9AC
:100480000920C00600210122044B019FBE4680BC0A
:1004900001B0FFF7B2BFC04611050000FF07000022
:1004A00070B5A14800F04AF9A04C012100251026A2
:1004B00020462A463346FFF7A0FF0322204629465E
:1004C0003346FFF7B9FF2046314670BC04BC964660
:1004D000FFF787BF84B000F0DFFB00F04FF9FFF7B4
:1004E000DFFFFFF7C9FF00F0EBFAFFF731FF00F085
:1004F000D1F80920C6063046FFF77CFF03AC207018
:100500008A481021FFF76DFF207840F20017584D00
:10051000002800D195E001240A22284621461546EC
:1005200000F099FA6427304640F20011FFF75DFFB2
:10053000A8B1304640F20011FFF757FF0028F2D172
:100540003846FFF7F5FE4A4821462A4600F083FA6E
:10055000304640F20011FFF748FF0028E3D1009633
:10056000002401260A20019040F200172C37029443
:100570003F4D032C11D228463146019A00F06BFA08
:100580003846FFF7D5FE28463146029A00F063FA56
:100590003846FFF7CDFE641CEBE76424009D284637
:1005A00040F20011FFF721FF80B9284640F2001108
:1005B000FFF71BFF0028F2D02046FFF7B9FE2846C0
:1005C00040F20011FFF711FF0028E8D001210A22B4
:1005D0000292284E26480C460191B04726493846DB
:1005E0000F468847002222482146B04703A80078DA
:1005F000FA21414340F29010081AB8473C46284679
:1006000040F20021FFF7EDFE40F20017F4373846C4
:10061000A047284640F20021FFF7E1FE1748A04717
:10062000284640F20041FFF7DCFE3846A047284646
:1006300040F20041FFF7D3FE0D480199029AB047FE
:10064000FEE7012600200290F4370A2428463146AE
:10065000029A00F000FA3846FFF76AFE2846314653
:10066000224600F0F8F93846FFF762FEEEE7C04692
:1006700000040040570A000831030008DC050000B0
:10068000024A0A40024302480260704780FFFF1F8F
:1006900008ED00E070B588B0234800F04FF8234D16
:1006A000002402262846314622463346FFF7A5FE9F
:1006B0000322284621463346FFF7BEFE2846214640
:1006C0003246FFF761FE40F2087000F037F8184D2F
:1006D000284600F04BFA01A90C73164803904720F6
:1006E00001900294284600F077FA05AA01201080B4
:1006F00094802846214600F06FF80F4A284621468C
:1007000000F0A9F960222846214600F077F9082276
:100710002846214600F0A6F9284600F057F828465A
:1007200000F054FA08B070BD120500000004004843
:10073000002000401F4E0000C40900001F2101409E
:1007400001228A4080090C494358134343507047A3
:100750001F21014001228A408009074943589343E1
:10076000435070471F21014001228A4080090249FD
:1007700043581343435070470010024010B50F48D0
:10078000006840F2E831B0FBF1F0401E010E00D0ED
:10079000FEE70B490B4A50600B4803680B400324EB
:1007A000A4071B19036000239360072313600268EA
:1007B0000A40012189075118016010BD0000002086
:1007C000FFFFFF0010E000E020ED00E00168802264
:1007D0000A4302607047000010B5032900D9FAE00F
:1007E0008B0001A4E3189F4600F006B800F08BB818
:1007F00000F045B800F0C8B8036A01218B430362DA
:1008000083690324A34383611388046A1C4304623D
:10081000036A0224A34303629388046A1C430462AC
:10082000754BC3180A24E341072B00D9D3E0994044
:10083000E123194200D1CEE0016A04239943016209
:100840005188036A0B430362016A082399430162DA
:10085000D188036A0B430362416840F20013994355
:100860004160118943680B434360416840F20023B3
:1008700099434160518942680A43426010BD016A50
:1008800040F20013994301620321C943C3690B403D
:10089000C36111880902036A0B430362016A40F2D3
:1008A00000239943016291880902036A0B430362A2
:1008B0004F490B1F984200D08DE0036A40F200447C
:1008C000A343036253881B02046A1C430462036A45
:1008D00040F60004A3430362D3881B02046A1C434E
:1008E0000462086841F2000398430860108900011F
:1008F0000B6803430B60086842F2000398430860EA
:100900005089000164E0016A102399430162816902
:1009100040F200339943816111880901036A0B4356
:100920000362016A20239943016291880901036AE5
:100930000B430362CD4988424ED0C94988424AD10F
:10094000016A40239943016251880901036A0B43FC
:100950000362016A802399430162D1880901036A15
:100960000B4303622248016840F20043994301604F
:100970001189890003680B430360016840F6000396
:100980009943016051892EE0016A41F200039943C5
:100990000162C16940F200339943C16111880903C2
:1009A000036A0B430362016A42F200039943016246
:1009B00091880903036A0B4303620D490B1F984298
:1009C00009D1086844F20003984308601089800147
:1009D0000A6802430A6010BD0648016840F20043FD
:1009E000994301601189890002680A43026010BDC1
:1009F000042C01400440014000D4FEBF10B503297F
:100A000028D88B0001A4E3189F46C04600F006B822
:100A100000F009B800F00FB800F012B88169702337
:100A20009943816105E0816947F20003994381613F
:100A3000120218300BE0C16970239943C16105E0CF
:100A4000C16947F200039943C16112021C30016879
:100A50001143016010BD032902D8890008184263C0
:100A60007047000010B5032928D88B0001A4E318B3
:100A70009F46C04600F006B800F009B800F00FB875
:100A800000F012B8816908239943816105E081690A
:100A900040F6000399438161120218300BE0C169EE
:100AA00008239943C16105E0C16940F600039943F9
:100AB000C16112021C3001681143016010BD0000C9
:100AC000F0B587B02648FFF739FE264E02210024F4
:100AD0002027304622463B46FFF78FFC0322304654
:100AE00021463B46FFF7A8FC0125304629463A46F9
:100AF000FFF74AFC1C48FFF721FE5A4E304600F033
:100B000035F869460C7340F271100290472000904E
:100B10000194304600F060F804AA158094803046B5
:100B20002946FFF759FE304629462246FFF793FF34
:100B3000602230462946FFF761FF082230462946E9
:100B4000FFF790FF3046FFF741FE304600F03EF8D9
:100B5000304629462246FFF77EFF07B0F0BDC0466B
:100B600012050000000400480107000010B5154CF4
:100B70003F49884213D01449884212D03A498842EA
:100B800011D03749884213D0384988420DD03949AD
:100B900088420CD03349884213D1F63408E0E41D72
:100BA00006E0F93404E0FD3402E0641D00E0A41D19
:100BB0002046FFF7D7FD204610BC02BC8E46FFF74B
:100BC000C7BD10BD0B0300000010004001680122EA
:100BD0000A4302607047000010B50A888262204A0A
:100BE000904202D01F4B98420BD103687024A3435C
:100BF00003604B8804681C4304608B8804681C43B2
:100C000004608B68C362174B98420DD0164B984214
:100C10000AD0904208D0154A904205D0144A90421A
:100C200002D0144A904215D1026840F200339A4330
:100C30000260CA880368134303600F4A82180A23BC
:100C4000DA41072A06D801239340E122134201D05A
:100C5000097B0163416901220A43426110BDC0461C
:100C6000002C0140000400400020004000400140F2
:100C7000004801400044014000D4FEBFC943016167
:100C80007047C2680A40531E9A4100690840411EDD
:100C9000884110407047000080B50748FFF74EFDBF
:100CA0000920C0060021012240F20013019FBE4628
:100CB00080BC01B0FFF7A1BB11050000E00C0008EB
:100CC000000000200800000010010008E80C0008E7
:100CD00008000020680800002C0100080000000047
:080CE00000A24A04000000001C
:04000005080000CD22
:00000001FF
